:020000040800F2
:10000000500B002039190008D5050008D705000855
:10001000DB050008DF050008E3050008000000001C
:10002000000000000000000000000000E7050008DC
:10003000E905000800000000EB050008ED050008D8
:1000400053190008531900085319000853190008E0
:1000500053190008531900085319000853190008D0
:1000600053190008531900085319000853190008C0
:1000700053190008531900085319000853190008B0
:1000800053190008531900085319000853190008A0
:100090005319000853190008531900085319000890
:1000A0005319000853190008531900085319000880
:1000B00053190008E71300085319000853190008E2
:1000C0005319000853190008531900085319000860
:1000D000531900080F1800089F180008531900084A
:1000E00053190008531900085319000800F002F8CA
:1000F00000F053F80AA090E8000C82448344AAF16F
:100100000107DA4501D100F048F8AFF2090EBAE86C
:100110000F0013F0010F18BFFB1A43F0010318473B
:100120004C4B00006C4B0000103A24BF78C878C1DB
:10013000FAD8520724BF30C830C144BF04680C60ED
:10014000704700000023002400250026103A28BF35
:1001500078C1FBD8520728BF30C148BF0B60704739
:10016000662904F0CF84642903F07681732903F0B3
:100170002A85002070471FB503F0A8FD0400002069
:10018000002104F057FB401C60600020002104F0B7
:100190003BFBE0601FBD10B510BD03F0E3FE114650
:1001A000FFF7E9FF00F058F903F00FFF03B4FFF782
:1001B000F2FF03BC01F01CFB08B501211C2001F07B
:1001C00065FF4FF20800ADF8000010208DF8030025
:1001D00003208DF802006946E24801F09BFC0220F2
:1001E000ADF8000010208DF8030003208DF8020008
:1001F0006946DC4801F08EFC4FF40050ADF8000079
:1002000010208DF8030003208DF802006946D648BF
:1002100001F080FC8020ADF8000004208DF8030080
:100220006946D04801F076FC4FF40040ADF800007C
:1002300004208DF803006946CC4801F06BFC08BD32
:1002400010B586B00446012144F2040001F01EFFFF
:100250004FF40070ADF8140003208DF8160018203C
:100260008DF8170005A9C14801F054FC4FF48060D7
:10027000ADF8140004208DF8170005A9BB4801F063
:1002800049FC25208DF8000000208DF80100032096
:100290008DF8020001208DF80300684601F071FB23
:1002A00001940020ADF80800ADF80A00ADF80C008C
:1002B000ADF810000C20ADF80E0001A9AC4801F01B
:1002C0008CFF012240F22551A94802F01EF80121BD
:1002D000A74802F00EF806B010BD10B586B004466F
:1002E0000121480401F0DFFE0420ADF814000320D2
:1002F0008DF8160018208DF8170005A99B4801F00D
:1003000009FC0820ADF8140004208DF8170005A999
:10031000964801F0FFFB26208DF8000003208DF8A1
:1003200001008DF8020001208DF80300684601F0FD
:1003300028FB01940020ADF80800ADF80A00ADF8E4
:100340000C00ADF810000C20ADF80E0001A9894892
:1003500001F043FF012240F22551864801F0D5FF0C
:100360000121844801F0C5FF06B010BD08B5012188
:10037000082001F08BFE4FF44060ADF80000102023
:100380008DF8030003208DF802006946754801F0DE
:10039000C1FB4FF44061734801F069FC08BD10B522
:1003A0004FF40041714801F048FC10BD2DE9F041C7
:1003B0000024102779016B4801F059FC022001F05C
:1003C000EAF97901674801F054FC022001F0E3F9F1
:1003D0007901644801F04BFC022001F0DCF939019D
:1003E000604801F044FC022001F0D5F980215D480D
:1003F00001F023FC00B1641C002517E04FF480716C
:10040000584801F036FC022001F0C5F94FF4807124
:10041000544801F02CFC022001F0BDF96400802159
:10042000504801F00AFC00B1641C6D1C781EA84203
:10043000E4D84FF480714B4801F019FC4FF400717F
:10044000484801F014FC04F47F40C4F3072140EA5B
:1004500001063046BDE8F08100F039F901F05EF99F
:100460004FF4A06001F088FAFFF7A6FE4FF4E130E8
:10047000FFF7E6FE4FF4E130FFF72FFFFFF776FFBF
:1004800041F61F41092000F081FF00F0D5FC00F08B
:10049000FFFA39483949C8603948018839A002F063
:1004A0006BFFFFF77CFF18B101203F49087002E0A5
:1004B00000203D4908703C49087801F0A8F8FFF792
:1004C0006EFF0446214639A002F056FF49E03D4840
:1004D000008800F00100A8B13B48007850B13B48CB
:1004E00000F018FE4FF48071384803F0ACF800209B
:1004F0003549087001F0CEF83248008820F001003C
:10050000304908802F48008800F0040038B100F01E
:1005100048FE2C48008820F004002A490880294819
:10052000008800F0080038B101F07EF82548008806
:1005300020F00800234908802248008800F4007059
:1005400078B12348006808B9012000E00020204964
:10055000086000F01CFD1B48008820F40070194959
:100560000880B4E7000C0140001001400008014081
:100570000038014000440040A2EDEE5A0001002086
:100580000400002047657420494420737563636547
:1005900073732021212044657669636520494420D6
:1005A0003D203A25640D0A00EC0000207377697441
:1005B000636820737461747573203D203A25640D5F
:1005C0000A000000B0000020C40000202402002027
:1005D000B4012242704700BFFEE700BFFEE700BF44
:1005E000FEE700BFFEE770477047704770470000A6
:1005F0000CB50020019000906C48006840F48030F9
:100600006A49086000BF6948006800F40030009043
:100610000198401C0190009818B90198B0F5A06F9E
:10062000F1D16248006800F4003010B10120009060
:1006300001E0002000900098012843D15C48006848
:1006400040F010005A4908600846006820F0030096
:1006500008600846006840F002000860534840689F
:10066000524948600846406848600846406840F47F
:10067000806048600846406820F47C104860084666
:10068000406840F4E81048600846006840F0807018
:10069000086000BF4548006800F000700028F9D0ED
:1006A0004248406820F003004049486008464068DE
:1006B00040F00200486000BF3C48406800F00C0079
:1006C0000828F9D10CBD10B5FFF792FF10BD10B589
:1006D0003648006840F00100344908600846406828
:1006E00034490840314948600846006832490840AA
:1006F0002E4908600846006820F4802008600846FB
:10070000406820F4FE0048604FF41F008860FFF747
:10071000DAFF4FF000602949086010BD10B50021D4
:1007200000200022214B5B6803F00C0121B1042959
:1007300006D0082928D107E0214B224C236027E06E
:100740001F4B204C236023E0184B5B6803F47010B0
:10075000164B5B6803F48032022303EB904022B90E
:10076000194B4343174C23600DE0104B5B6803F4B7
:10077000003323B1144B4343124C236003E0104B6E
:100780004343104C236003E00D4B0E4C236000BF2D
:1007900000BF064B5B68C3F303130C4CE15C094BD1
:1007A0001B68CB40074C236010BD000000100240C6
:1007B000002002400000FFF8FFFFF6FE08ED00E019
:1007C00000127A000800002000093D000C00002003
:1007D00038B5044674B94FF40040ADF80000142059
:1007E0008DF8030003208DF802006946FE4801F0F1
:1007F00091F90BE0012C09D1E003ADF8000048208D
:100800008DF803006946F84801F084F938BD70B5E9
:1008100000252BE04FF47A7000F099FF4FF400515F
:10082000F14801F026FA4FF47A7000F090FF60066C
:10083000040E4FF40041EC4801F019FA0120FFF7D3
:10084000C7FF052000F083FF4FF40041E64801F0A8
:10085000F4F908B944F001040020FFF7B9FF4FF4A0
:100860000051E14801F003FA681CC5B2082DD1DB44
:10087000204670BD70B50446002523E004F08000DA
:1008800028B94FF48041D84801F0F3F904E04FF45F
:100890008041D54801F0EBF96006040E4FF47A7000
:1008A00000F055FF4FF40051CF4801F0E2F94FF44A
:1008B0007A7000F04CFF4FF40051CB4801F0D7F9AB
:1008C000681CC5B2082DD9DB70BD0246002108E0C6
:1008D000C648405C904202D1C548405C7047481C05
:1008E000C1B23129F4DBFF20F8E72DE9F0410546DC
:1008F0000E4617464FF48051BB4801F0BAF9052067
:1009000000F025FF4FF40051B74801F0B0F945F071
:100910008000FFF7AFFF002404E0305DFFF7AAFF7F
:10092000601CC4B2BC42F8DB4FF48051AE4801F009
:100930009EF94FF47A7000F00AFFBDE8F0812DE9CE
:10094000F04105460E4617464FF40051A64801F007
:100950008EF9052000F0FBFE4FF48051A24801F013
:1009600088F9052000F0F3FE05F07F00FFF782FF15
:10097000002404E0FFF74BFF3055601CC4B2BC42BA
:10098000F8DB4FF48051984801F071F94FF47A7018
:1009900000F0DDFEBDE8F08110B504464FF40051D3
:1009A000914801F064F9012000F0D1FE4FF480512C
:1009B0008D4801F05EF94FF47A7000F0C8FEEA202D
:1009C000FFF758FF2046FFF755FF4FF48051864848
:1009D00001F04DF94FF47A7000F0B9FE10BD38B552
:1009E000E520FFF7D9FF052000F0B1FE00208DF8CB
:1009F000000043208DF80100022269460020FFF725
:100A000074FF14208DF8000025208DF801000222CB
:100A100069461046FFF769FF00208DF800000320AB
:100A20008DF80100022269460120FFF75EFF0020D9
:100A30008DF8000060208DF8010002226946032035
:100A4000FFF753FF01208DF8000020208DF80100F2
:100A5000022269460420FFF748FF00208DF80000BD
:100A60008DF8010000240DE0611DC8B2FFF72DFFD5
:100A70000546611D5D4A505C2A466946FFF735FF11
:100A8000601CC4B20C2CEFDBDC20FFF785FF38BD07
:100A900038B50024FFF7A3FFE520FFF77DFF002511
:100AA0005448048820128DF800002046E11704EB1A
:100AB00011610912A4EB0121C9B28DF80110691D61
:100AC0004A4A505C02226946FFF70FFF01254A4857
:100AD000048820128DF800002046E11704EB116114
:100AE0000912A4EB0121C9B28DF80110691D3F4A1A
:100AF000505C02226946FFF7F8FE02253F48047861
:100B000000788DF80000691D384A505C0122694662
:100B1000FFF7EBFE03253A48047800788DF80000D3
:100B2000691D324A505C01226946FFF7DEFE04254A
:100B30003448048820128DF800002046E11704EBA9
:100B400011610912A4EB0121C9B28DF80110691DD0
:100B5000264A505C02226946FFF7C7FE05252A484F
:100B6000048820128DF800002046E11704EB116183
:100B70000912A4EB0121C9B28DF80110691D1B4AAD
:100B8000505C02226946FFF7B0FE06251F48048824
:100B900020128DF800002046E11704EB11610912C4
:100BA000A4EB0121C9B28DF80110691D0F4A505CF8
:100BB00002226946FFF799FE07251548048820128E
:100BC0008DF800002046E11704EB11610912A4EB37
:100BD0000121C9B28DF80110691D044A505C02223E
:100BE0006946FFF782FE15E0000C0140084B000843
:100BF000394B00088200002084000020860000207D
:100C000087000020880000208A0000208C0000203F
:100C10008E00002008257948048820128DF80000F5
:100C20002046E11704EB11610912A4EB0121C9B2BE
:100C30008DF80110691D724A505C02226946FFF767
:100C400054FE09256F48048820128DF800002046C4
:100C5000E11704EB11610912A4EB0121C9B28DF86F
:100C60000110691D664A505C02226946FFF73DFE8D
:100C70000A256548048820128DF800002046E117F7
:100C800004EB11610912A4EB0121C9B28DF8011026
:100C9000691D5B4A505C02226946FFF726FE0B2560
:100CA0005A48048820128DF800002046E11704EB12
:100CB00011610912A4EB0121C9B28DF80110691D5F
:100CC0004F4A505C02226946FFF70FFEDC20FFF717
:100CD00063FE38BDF8B506460020009036B1012EFF
:100CE00019D0022E33D0032E5AD14CE0022269468D
:100CF0002520FFF724FE9DF800004FF6FF7101EA62
:100D000000259DF80100284485B2414890FBF5F08C
:100D10004049086045E04048058803226946242090
:100D2000FFF70DFE9DF8000001049DF8010001EBA6
:100D300000209DF8021044186C434FF47A70B4FB05
:100D4000F0F4B4FBF0F4A0B23449086029E0344870
:100D50000588032269462220FFF7F1FD9DF8000077
:100D600001049DF8010001EB00209DF802104418D9
:100D70006C434FF47A70B4FBF0F4B4FBF0F4A0B21F
:100D8000284908600DE0274800682449096848435D
:100D90004FF47A71B0FBF1F4A0B22349086000E08F
:100DA00000BF00BFF8BD7FB50120FFF793FF0546E8
:100DB00003F04AFE04461D4903F084FD0190022021
:100DC000FFF788FF054603F03FFE0446174903F08E
:100DD00079FD00900320FFF77DFF054603F034FE08
:100DE0000446124903F06EFD02907FBD1048417821
:100DF000007801EB00200F49086070479000002048
:100E0000084B00089200002094000020960000206B
:100E100078BEAA0220000020980000201C000020BC
:100E20009A0000202400002028000020000020411B
:100E3000550000205800002010B54FF40051EE4836
:100E400000F017FF4FF47A7000F0A5FC4FF400514A
:100E5000E94800F00CFF0520E849087010BD3FB5D7
:100E600091B0119803F002FD044622460B46E4A11E
:100E70000EA802F08DFA129803F0F8FC0446224600
:100E80000B46DFA10BA802F083FA139803F0EEFCE7
:100E9000044622460B46DAA108A802F079FADAA144
:100EA00003A8149A02F074FA4FF48071D74802F044
:100EB000CAFB03A808A90BAB0EAACDE90010D449C0
:100EC000D24802F065FAD149D2A002F055FA15B025
:100ED00030BDFEB504460020009001900290250A26
:100EE000E6B233462A46D2A1684602F051FA4FF4E0
:100EF0008071C64802F0A7FB6A46D0A1C34802F041
:100F000047FAC249D0A002F037FAFEBD10B54FF43F
:100F10008071BE4802F097FBCDA1BC4802F038FAC0
:100F2000BA49C9A002F028FA10BD10B54FF480717B
:100F3000B64802F088FBC9A1B44802F029FAB349C7
:100F4000C1A002F019FA10BD10B504464FF480712B
:100F5000AE4802F078FB2246C3A1AC4802F018FA72
:100F6000AA49B9A002F008FA10BDA4490870704758
:100F7000C849087070470020C649087070470120B2
:100F8000C549087070470020C3490870704710B504
:100F9000C2480FC8FFF707FF98480078052802D11C
:100FA0000420FFF7E5FF10BD70B50546BCA128463B
:100FB00002F037FB0446002C7ED0BDA1284602F08B
:100FC00030FB04460934204602F01EFBBA49087083
:100FD000BAA1284602F025FB04460E34204602F052
:100FE00013FBB5494880B8A1284602F01AFB044615
:100FF0000D34204602F008FBAF490871B5A1284620
:1010000002F00FFB04460E34204602F0FDFAAA4916
:10101000C880B3A1284602F004FB04460F342046E2
:1010200002F0F2FAA4490881B1A1284602F0F9FAC7
:1010300004460D34204602F0E7FA9F498872AFA1BA
:10104000284602F0EEFA04460E34204602F0DCFA9E
:1010500099498881ACA1284602F0E3FA04460F348E
:10106000204602F0D1FA9449C881ABA1284602F08B
:10107000D8FA04461034204602F0C6FA8E49088297
:10108000A9A1284602F0CDFA04460F34204602F00A
:10109000BBFA894948820846007818B1A649087801
:1010A00000F078FA8448007918B1A349487800F034
:1010B00071FA8148808900E007E030B19E49887864
:1010C00000F068FA01209C4988709CA1284602F033
:1010D000A8FA0446ACB19DA1284602F0A2FA044643
:1010E000E41D204602F090FA9A4908709AA1284619
:1010F00002F097FA04460D34204602F085FA95492D
:10110000488098A1284602F08CFA04460CB1FFF7FB
:101110003EFF70BD70B5054696A1284602F081FAE3
:1011200048B1E8793038C4B2002C04DD0A2C02DA68
:101130002046FFF71AFF91A1284602F072FA08B183
:10114000FFF721FF2D4800780A2812D2DFE800F0CF
:1011500011050611070B11110F100BE00AE0022018
:10116000FFF706FF06E08648FFF71EFF02E001E0FA
:1011700000E000BF00BF70BD70B5044600250CE064
:10118000615D804801F022F900BF80217D4801F0B7
:101190008BF90028F9D0681C85B2605D0028EFD17A
:1011A00070BD10B53C48007828BB3A48007810B3B1
:1011B00038480078022806D0032807D0042808D031
:1011C00005280FD10AE0FFF7A1FE0CE0FFF7ADFE06
:1011D00000BF32480FC8FFF742FE04E06A48FFF73D
:1011E000B3FE00E000BF00BF0848FFF7C5FFFFF7F0
:1011F000C6FEFFF7C0FE10BD00100140A800002091
:10120000252E326600000000256400001001002039
:10121000104C000831206D696E2075706461746532
:1012200020737461747573203A25730D0A000000F1
:1012300025303364253033640000000041542B53C3
:10124000455449443D25730025730D0A00000000F4
:1012500041542B5452414E534F4E000041542B5495
:1012600052414E534F4646007B224E616D65223AF5
:10127000225265706F72744E66634361726444619A
:101280007461222C2244617461223A222573222245
:101290007D000000AA000020A9000020000100201D
:1012A000536574446576696365537461747573003E
:1012B0005377697463680000EC0000205377697409
:1012C000686344656C6179004C69676874436F7545
:1012D0006E7400004C696768744F6E54696D6500E8
:1012E0004C696768744F666654696D65000000005C
:1012F0004C69676874436F6C6F72000042757A7A4C
:101300006572436F756E740042757A7A65724F6EBE
:1013100054696D650000000042757A7A65724F6607
:101320006654696D6500000042757A7A6572566F81
:101330006C756D6500000000B80000205265626F9A
:101340006F74446576696365000000004D6F6465E5
:10135000000000000000002044656C617944656C69
:10136000617900004765745265616C74696D654C04
:101370006F61640053544154555300004F4B0000BB
:101380002402002000380140AB0000207FB5054654
:101390000C460121022000F086FEADF80850ADF8A1
:1013A00004400020ADF80A00ADF8060001A9754818
:1013B00001F0A8F901221146724801F01AFD1D2022
:1013C0008DF8000000208DF8010003208DF8020048
:1013D00001208DF80300684600F0D3FA0121694826
:1013E00001F0ECFC7FBD10B567480068401C664901
:1013F00008600121634801F0AAFF00287ED0012186
:10140000604801F0B5FF6148008840F001005F4985
:1014100008805D4800680321B0FBF1F201FB120077
:1014200028B95A48008840F00200584908805648B8
:1014300000680521B0FBF1F201FB120028B9534806
:10144000008840F00400514908804F4800680A2194
:10145000B0FBF1F201FB120028B94C48008840F0C3
:1014600008004A490880484800681921B0FBF1F299
:1014700001FB120028B94548008840F0100043499C
:101480000880414800683221B0FBF1F201FB1200F4
:1014900028B93E48008840F020003C4908803A487E
:1014A00000686421B0FBF1F201FB120028B9374853
:1014B000008840F04000354908803348006840F219
:1014C0004D11B0FBF1F201FB120028B92F48008842
:1014D00040F080002D4908802B4800684FF4FA71D5
:1014E000B0FBF1F201FB120028B92848008840F453
:1014F0008070264908802448006800E041E04FF4ED
:101500007A71B0FBF1F201FB120050B92048C068BB
:10151000401C1F49C8601D48008840F400701B49EA
:1015200008801948006840F6B831B0FBF1F201FBC1
:10153000120028B91548008840F4806013490880DB
:101540001148006841F27C51B0FBF1F201FB12003E
:1015500028B90E48008840F480500C4908800A4899
:1015600000684EF66021B0FBF1F201FB120040B9B9
:101570000648008840F400600449088000200249C1
:10158000086010BD00040040B4000020B00000203E
:1015900000010020012070470020704710B5022193
:1015A000564800F064FB01205549087010BD10B585
:1015B0000221524800F05DFB00205149087010BD27
:1015C0005048C0895049C8814E48008A08827047F7
:1015D00010B500244D48007858B9FFF7DFFFFFF73A
:1015E000EFFF00204A49087048480078401C4749EE
:1015F00008704748007818B1002044490870012459
:10160000204610BD3F4840883F494880704710B58C
:10161000044624B10821394800F029FB03E00821E1
:10162000364800F026FB10BD10B53A488078A8B1C6
:101630003448808950B1FFF7CBFF78B131488089B9
:10164000401E30498881FFF7BBFF07E0002030498A
:101650000870304988708878FFF79EFF2D48007821
:10166000B8B12D480078A0B126480078012802D1F1
:10167000FFF7CDFF06E023480078022802D10020C2
:10168000FFF7C5FF00202449087022490878FFF7BA
:1016900083FF10BD10B51F488078F0B1184800785E
:1016A00001280ED11848C08928B11748C089401EAA
:1016B0001549C88111E0FFF77AFF00201049087032
:1016C0000BE01148008A28B10F48008A401E0E49DD
:1016D000088202E001200E4908700E48007858B1D7
:1016E0000948408828B108484088401E064948807B
:1016F00002E001200849087010BD0000000C014004
:10170000BB000020EC00002010020020BE000020E2
:10171000BC000020B8000020BD00002010B56FF014
:10172000040000F078F92E4800682E49B0FBF1F073
:101730002D4908700846007800EB4001C1EBC0104D
:101740004FF6FF7101EAC0002849088010BD01462C
:10175000254A12784A434FF0E0235A6100229A61E9
:101760001A46126942F001021A6100BF4FF0E022EE
:10177000106900F001021AB100F48032002AF5D09D
:101780004FF0E022126922F001024FF0E0231A61CB
:1017900000229A6170470146144A12884A434FF06A
:1017A000E0235A6100229A611A46126942F001024E
:1017B0001A6100BF4FF0E022106900F001021AB177
:1017C00000F48032002AF5D04FF0E022126922F0B6
:1017D00001024FF0E0231A6100229A617047000075
:1017E0000800002000127A00C0000020C200002083
:1017F000014600BF704700BF474A128802F040020E
:10180000002AF9D0C2B2444B1B1D1A80704710B594
:1018100040F22551414800F05DFE00283ED040F2E4
:1018200025513E4800F080FE3C4800F0D3FD0446C0
:101830003B48008838B900203A4908704FF480715D
:10184000394801F000FF3849364A12788C5435483F
:101850000078401C334908703220314908803148F3
:101860000078FF2807DD00202E4908704FF48071B2
:101870002D4801F0E8FE2B480078401E2A49085CFC
:101880000A280BD127480078801E085C0D2805D156
:1018900000202449087001202449087010BD10B5AB
:1018A00040F225511C4800F015FE10B31A4800F014
:1018B00091FDC4B21E48008800F40040C8B91C481D
:1018C000008800F4804060B10A2C03D00020184941
:1018D000088020E01648008840F400401449088041
:1018E00019E00D2C06D11248008840F480401049C0
:1018F000088010E00E480088C0F30D000D490C541C
:101900000B480088401C0A49088008460088C72800
:1019100001DD0020088010BD004400400038014077
:10192000CA000020CC00002024020020C4000020B7
:10193000D4000020240400200948804709480047BB
:10194000FEE7FEE7FEE7FEE7FEE7FEE7FEE7FEE76F
:10195000FEE7FEE704480549054A064B70470000CC
:10196000CF060008ED00000850050020500B0020B5
:10197000500700205007002031490143314A1160CF
:10198000704770B5002100230F22C47804B32D4C9A
:10199000246804F4E064C4F5E064210AC1F104039E
:1019A000CA40447804FA03F18478144021430901C1
:1019B000254C0678A155047804F01F050124AC409D
:1019C00005786D11AD0005F1E025C5F8004109E08D
:1019D000047804F01F050124AC401C4D06787611F4
:1019E00045F8264070BD1A4A0A400243154B1B1F9A
:1019F0001A60704739B1134A121D12680243114B25
:101A00001B1D1A6006E00F4A121D126882430D4B1F
:101A10001B1D1A607047042808D14FF0E0210969A6
:101A200041F004014FF0E022116107E04FF0E021A6
:101A3000096921F004014FF0E022116170470000B4
:101A40000000FA050CED00E000E400E080E100E0B9
:101A500080FFFF1F10B50446CC48844208D1012105
:101A6000042000F02DFB0021042000F029FB46E0BB
:101A7000C748844208D10121082000F021FB002141
:101A8000082000F01DFB3AE0C248844208D1012141
:101A9000102000F015FB0021102000F011FB2EE0BB
:101AA000BD48844208D10121202000F009FB00211B
:101AB000202000F005FB22E0B848844208D1012133
:101AC000402000F0FDFA0021402000F0F9FA16E075
:101AD000B348844208D10121802000F0F1FA0021AE
:101AE000802000F0EDFA0AE0AE48844207D10121DF
:101AF000801500F0E5FA0021A01500F0E1FA10BD14
:101B000010B50121084600F0DBFA0021012000F0A9
:101B1000D7FA10BD2DE9F04102460025002600202D
:101B200000230024002791F803C00CF00F0591F862
:101B300003C00CF0100CBCF1000F03D091F802C0F0
:101B40004CEA050591F800C0BCF1000F31D01468D3
:101B500000202BE04FF0010C0CFA00F3B1F800C0AC
:101B60000CEA03069E4220D183004FF00F0C0CFAC2
:101B700003F7BC4305FA03FC4CEA040491F803C0E4
:101B8000BCF1280F06D14FF0010C0CFA00FCC2F892
:101B900014C00AE091F803C0BCF1480F05D14FF022
:101BA000010C0CFA00FCC2F810C0401C0828D1D36C
:101BB0001460B1F800C0BCF1FF0F34DD54680020A0
:101BC0002EE000F1080C4FF0010808FA0CF3B1F810
:101BD00000C00CEA03069E4221D183004FF00F0C97
:101BE0000CFA03F7BC4305FA03FC4CEA040491F831
:101BF00003C0BCF1280F05D100F1080C08FA0CF85D
:101C0000C2F8148091F803C0BCF1480F07D100F16D
:101C1000080C4FF0010808FA0CF8C2F81080401CBC
:101C20000828CED35460BDE8F0814FF6FF710180E3
:101C3000022181700421C170704702460020936820
:101C40000B400BB1012000E000207047014688687E
:101C500080B2704702460020D3680B400BB10120D0
:101C600000E0002070470146C86880B270470161FB
:101C70007047416170470AB1016100E041617047FE
:101C8000C16070474FF480320A4382618161826192
:101C900082698269704702460020434B18684FF6FC
:101CA0008073184040EA021008433F4B18607047A9
:101CB0003E49C8617047F0B50A4600230024002160
:101CC000002500F00046B6F1004F02D1364EF16912
:101CD00001E0354E7168C0F3034583B200F440164D
:101CE000B6F5401F08D121F070612F4E766826F0BE
:101CF00070662D4F7E6012E000F48016B6F5801FEE
:101D000006D1032606FA05F4A14341F0706106E00E
:101D1000460D360103FA06F6B14341F0706122B177
:101D2000460D360103FA06F6314300F00046B6F1DF
:101D3000004F02D11C4EF16101E01B4E7160F0BDFD
:101D400030B500228B071C0F0F2303FA04F2164B49
:101D500008338C1053F824309343134C08348D10FF
:101D600044F8253023468C1053F824308C07240F78
:101D700000FA04F423430C4C08348D1044F8253049
:101D800030BD0A49DC31086070470000000801409E
:101D9000000C0140001001400014014000180140F7
:101DA000001C0140002001400000014000002042D2
:101DB000DF48006840F00100DD49086008464068DF
:101DC000DC490840DA49486008460068DA490840BA
:101DD000D74908600846006820F48020086008465B
:101DE000406820F4FE0048604FF41F008860704790
:101DF000CF49096821F48031CD4A11601146096844
:101E000021F480211160B0F5803F03D0B0F5802F20
:101E10000ED106E0C649096841F48031C44A116018
:101E200007E0C349096841F4A021C14A116000E0FC
:101E300000BF00BF704710B50146002200230020FC
:101E40004A11012A02D1BA4C236806E0022A02D1C3
:101E5000B74C236A01E0B64C636A01F01F0201240B
:101E600094401C400CB1012000E0002010BD38B5AA
:101E7000002000900024002500BF3120FFF7DBFF89
:101E800005460098401C00900098B0F5A06F01D066
:101E9000002DF2D03120FFF7CEFF08B1012400E081
:101EA0000024204638BD01460020A14A106820F0D9
:101EB000F80040EAC10010607047A0490860704710
:101EC000024600209A4B586820F47C1042EA010335
:101ED0001843974B58607047984908667047014609
:101EE0000020934A506820F0030008435060704778
:101EF0008F48406800F00C007047014600208C4A73
:101F0000506820F0F0000843506070470146002000
:101F1000874A506820F4E0600843506070470146EB
:101F20000020834A506820F4605040EAC1005060AD
:101F3000704729B17E4A527A02437D4B5A7204E0BF
:101F40007B4A527A82437A4B5A7270477B49D83126
:101F50000860704701460020754A506820F44040F0
:101F60000843506070470021714A20321170704A56
:101F700082F82010012802D004280AD104E00121AF
:101F80006B4A2032117005E00521694A2032117038
:101F900000E000BF00BF70476949086070476449AE
:101FA000096A0143624A1162704765494439086011
:101FB000704730B500210022002400235C4D6D687D
:101FC00005F00C0121B1042905D0082923D105E031
:101FD0005C4D056022E05B4D05601FE0544D6D686F
:101FE00005F47012524D6D6805F48034022505EB3E
:101FF00092421CB9544D554305600BE04C4D6D6841
:1020000005F400351DB1504D5543056002E04D4DBE
:102010005543056002E04B4D056000BF00BF444DD5
:102020006D6805F0F0010909484D6B5C0568DD40FD
:1020300045603F4D6D6805F4E061090A434D6B5CF6
:102040004568DD4085603A4D6D6805F46051C90A08
:102050003E4D6B5C4568DD40C560354D6D6805F4EF
:102060004041890B3A4D6B5CC568B5FBF3F50561E2
:1020700030BD29B12E4A526902432D4B5A6104E00A
:102080002B4A526982432A4B5A61704729B1284A28
:1020900092690243264B9A6104E0254A9269824381
:1020A000234B9A61704729B1214AD2690243204BE0
:1020B000DA6104E01E4AD26982431D4BDA6170473F
:1020C00029B11B4AD2680243194BDA6004E0184A6E
:1020D000D2688243164BDA60704729B1144A1269FC
:1020E0000243134B1A6104E0114A12698243104BF8
:1020F0001A61704712494039086070470F49C86437
:1021000070470B49C87170470948406A40F08070B9
:1021100007494862704701460020054A92680A4014
:102120000AB1012000E00020704701498872704721
:10213000001002400000FFF8FFFFF6FE00004242E0
:102140008004424200127A0000093D00D6000020BF
:10215000E600002010B50446FB48844209D1012165
:102160008803FFF7ADFF00214FF48040FFF7A8FF81
:1021700032E0F648844209D101214804FFF7ADFF5F
:1021800000214FF40030FFF7A8FF25E0F04884421B
:1021900009D101218804FFF7A0FF00214FF480201E
:1021A000FFF79BFF18E0EB48844209D10121C804E6
:1021B000FFF793FF00214FF40020FFF78EFF0BE0A5
:1021C000E548844208D101210805FFF786FF002178
:1021D0004FF48010FFF781FF10BD2DE9F04786B066
:1021E00005460E460024A24600BFA1460027B0893E
:1021F00000B100BF2F462C8A4CF6FF700440F088D7
:1022000004432C82AC894EF6F3100440B088318927
:102210000843718908430443AC81AC8A4FF6FF4000
:102220000440B0890443AC8201A8FFF7C2FEC6484F
:10223000874202D1DDF810A001E0DDF80CA0A889EA
:1022400000F4004040B10AEBCA0000EB0A1031680C
:102250004900B0FBF1F807E00AEBCA0000EB0A10F6
:1022600031688900B0FBF1F86420B8FBF0F004019C
:102270002009642101FB1089A88900F4004040B1C5
:10228000322000EBC900B0FBF1F000F0070004437E
:1022900008E0322000EB09106421B0FBF1F000F0FF
:1022A0000F0004432C8106B0BDE8F0874FF41651AF
:1022B000016000218180C18001810C2141810021C8
:1022C0008181704710B502460020108A4FF2FF034B
:1022D00018400B884C8823438C882343CC882343A5
:1022E0001843108210BD0021018041808180C1808F
:1022F000704721B1828942F40052828104E08289D0
:102300004DF6FF731A4082817047F0B503460024F2
:1023100000260025002040F66A17B94200D100BF10
:102320001846C1F3421401F01F06012707FA06F50B
:10233000012C01D10C3004E0022C01D1103000E05E
:1023400014301AB107682F43076002E00768AF43F3
:102350000760F0BD1AB1838A0B43838202E0838A4F
:102360008B4383827047028A4FF6F0731A400282D1
:10237000028A0A430282704782894FF2FF731A4031
:10238000828182890A438281704721B1828942F029
:102390000202828104E082894FF6FD731A40828135
:1023A0007047028A4FF6DF731A400282028A0A439C
:1023B0000282704721B1028A42F48042028204E024
:1023C000028A4BF6FF731A4002827047C1F308027B
:1023D0008280704701468888C0F308007047818971
:1023E00041F0010181817047028BD2B20283028BDE
:1023F00042EA012202837047028B02F47F42028389
:10240000028B0A430283704721B1828A42F0200284
:10241000828204E0828A4FF6DF731A40828270471C
:1024200021B1828A42F01002828204E0828A4FF651
:10243000EF731A408282704721B1828A42F008020B
:10244000828204E0828A4FF6F7731A4082827047D4
:1024500021B1828942F40042828103E08289C2F381
:102460000E028281704721B1828A42F40062828228
:1024700004E0828A4FF2FF731A4082827047828A98
:102480004FF6FB731A408282828A0A438282704727
:1024900021B1828A42F00202828204E0828A4FF6EF
:1024A000FD731A408282704702460020B1F5007F1A
:1024B00000D100BF13880B400BB1012000E00020C9
:1024C000704701F40072B2F5007F00D100BFCA432B
:1024D0000280704770B502460024002300250020CA
:1024E00040F66A16B14200D100BFC1F3421501F0B7
:1024F0001F03012606FA03F3012D02D1968933400A
:1025000006E0022D02D1168A334001E0968A33405C
:102510000C12012606FA04F41688344013B10CB1EB
:10252000012000E0002070BD10B50022002340F61D
:102530006A14A14200D100BF0A1201249440A3B240
:10254000DC43048010BD000000380140004400401E
:1025500000480040004C00400050004010B50446C8
:10256000FE48844208D10121C014FFF7A9FD0021D3
:10257000E014FFF7A5FDC4E0B4F1804F08D10121BC
:102580000846FFF7AAFD00210120FFF7A6FDB8E0ED
:10259000F348844208D101210220FFF79EFD00216B
:1025A0000220FFF79AFDACE0EE48844208D10121F9
:1025B0000420FFF792FD00210420FFF78EFDA0E02C
:1025C000E948844208D101210820FFF786FD002157
:1025D0000820FFF782FD94E0E448844208D10121FD
:1025E0001020FFF77AFD00211020FFF776FD88E02C
:1025F000DF48844208D101212020FFF76EFD002131
:102600002020FFF76AFD7CE0DA48844208D10121EE
:102610004014FFF755FD00216014FFF751FD70E0F5
:10262000D548844209D10121C804FFF749FD0021A2
:102630004FF40020FFF744FD63E0D048844209D105
:1026400001210805FFF73CFD00214FF48010FFF742
:1026500037FD56E0CA48844209D101214805FFF7F9
:102660002FFD00214FF40010FFF72AFD49E0C54877
:10267000844208D101214020FFF72FFD0021402096
:10268000FFF72BFD3DE0C048844208D101218020A6
:10269000FFF723FD00218020FFF71FFD31E0BB483D
:1026A000844208D101218015FFF717FD0021A015F4
:1026B000FFF713FD25E0B648844209D10121080443
:1026C000FFF7FEFC00214FF48030FFF7F9FC18E023
:1026D000B048844209D101214804FFF7F1FC0021F0
:1026E0004FF40030FFF7ECFC0BE0AB48844208D11C
:1026F00001218804FFF7E4FC00214FF48020FFF75C
:10270000DFFC10BD00220288944B98420ED0994BFA
:1027100098420BD0B0F1804F08D0914B984205D031
:10272000904B984202D0904B984204D14FF68F7351
:102730001A404B881A438D4B984207D08C4B9842D5
:1027400004D04FF6FF431A40CB881A4302808B888F
:1027500083850B880385814B98420BD0854B98422B
:1027600008D08B4B984205D08A4B984202D08A4BB6
:10277000984201D10B7A038601238382704770B59A
:10278000002400220023058C4FF6FE763540058498
:10279000028C8388048B4FF68F752C40B51E2C401D
:1027A0000D882C43751E2A400D892A434D882A43E3
:1027B0006A4DA8420BD06F4DA84208D0744DA84274
:1027C00005D0744DA84202D0734DA84213D14FF6E4
:1027D000F7752A404D892A434FF6FB752A408D88AC
:1027E0002A434FF6FF652B404FF6FF552B408D894E
:1027F0002B43CD892B4383800483CD888586028437
:1028000070BD70B5002400220023058C4FF6EF76D2
:1028100035400584028C8388048B48F6FF752C4074
:102820004FF6FF452C400D884FF6FF7606EA05254A
:102830002C434FF6DF752A400D8906EA05152A4319
:102840004D8806EA05152A43444DA84202D0494D59
:10285000A8421DD14FF67F752A404D894FF6FF766D
:1028600006EA05152A434FF6BF752A408D8806EA09
:1028700005152A434FF6FF352B404FF2FF752B40CD
:102880008D8906EA85052B43CD8906EA85052B430C
:1028900083800483CD880587028470BD70B50024D1
:1028A00000220023058C4FF6FF6635400584028C1C
:1028B0008388848B4FF68F752C404FF6FC752C4027
:1028C0000D882C434FF6FF552A400D894FF6FF76B1
:1028D00006EA05252A434D8806EA05252A431F4DA9
:1028E000A84202D0234DA8421DD14FF2FF752A40C5
:1028F0004D894FF6FF7606EA05252A434FF6FF3548
:102900002A408D8806EA05252A434EF6FF752B409E
:102910004DF6FF752B408D8906EA05152B43CD89B1
:1029200006EA05152B4383808483CD88858702843E
:1029300070BD70B5002200230024058C4EF6FF7692
:1029400035400584038C8488828B48F6FF752A40C5
:102950004FF6FF452A400D8820E00000002C014082
:102960000004004000080040000C0040001000403F
:102970000014004000340140004C01400050014070
:102980000054014000180040001C0040002000409E
:102990000040014000440140004801404FF6FF76EE
:1029A00006EA05252A434DF6FF752B400D8906EAF8
:1029B00005352B434D8806EA05352B43FA4DA842D1
:1029C00002D0FA4DA84208D14BF6FF752C408D89F4
:1029D0004FF6FF7606EA85152C4384808283CD88E6
:1029E000A0F84050038470BD828B4FF2FF331A4031
:1029F0008283828B4FF6FF7303EA01231A4382839B
:102A00007047F0B50C461546002200210026078CC1
:102A10004EF6FF7C07EA0C070784828B018C4FF689
:102A2000FF7707EA043640F6FF473A404FF6FF7754
:102A300007EA05273A434FF6FF7707EA03373A4399
:102A4000D94FB8420ED0D94FB8420BD0B0F1804F19
:102A500008D0D74FB84205D0D64FB84202D0D64F93
:102A6000B84206D14DF6FF77394046F480573943D6
:102A700005E047F6FF57394044F4805739438283D5
:102A80000184F0BD828B4FF6F3731A408283828BF0
:102A90000A4382837047F0B50C4615460022002198
:102AA0000026078C4FF6FF6C07EA0C070784828B21
:102AB000018C4FF6FF7707EA04264FF60C773A4071
:102AC0004FF6FF7707EA03172F433A43B64FB84252
:102AD0000ED0B64FB8420BD0B0F1804F08D0B44FF3
:102AE000B84205D0B34FB84202D0B34FB84206D176
:102AF0004FF6FF57394046F48077394305E04FF2EF
:102B0000FF57394044F48077394382830184F0BD14
:102B1000028B4FF2FF331A400283028B4FF6FF7392
:102B200003EA01231A4302837047F0B50C461546A9
:102B3000002200210026078C4FF6EF7C07EA0C07E5
:102B40000784028B018C4FF6FF7707EA041640F6E4
:102B5000FF473A404FF6FF7707EA03373A434FF60D
:102B6000FF7707EA05273A438F4FB8420ED08F4FC1
:102B7000B8420BD0B0F1804F08D08D4FB84205D08D
:102B80008C4FB84202D08C4FB84206D14FF6DF7757
:102B9000394046F01007394305E04FF65F7739407A
:102BA00044F01007394302830184F0BD028B4FF6D5
:102BB000F3731A400283028B0A4302837047F0B515
:102BC0000C46154600220021068C4FF6FE773E404B
:102BD0000684028B018C4FF60C7632407E1C06EA8E
:102BE00003162E433243704EB0420ED06F4EB042A9
:102BF0000BD0B0F1804F08D06D4EB04205D06D4E75
:102C0000B04202D06C4EB04206D14FF6FD76314054
:102C100044F00106314305E04FF6F576314044F0CB
:102C20000106314302830184F0BD70B505460C46B0
:102C30005D4885420ED05D4885420BD0B5F1804F8E
:102C400008D05B48854205D05A48854202D05A4890
:102C5000854200D100E000BF208850B92389A288B6
:102C600061882846FFF7ABFFE1882846FFF79EFF03
:102C700025E0208804280AD12389A2886188284673
:102C8000FFF753FFE1882846FFF742FF17E020884F
:102C900008280AD12389A28861882846FFF7FBFE0D
:102CA000E1882846FFF7EEFE09E02389A2886188C3
:102CB0002846FFF7A6FEE1882846FFF795FE70BD7F
:102CC0002DE9F04105460C4600260127608808B929
:102CD000022600E00026A088012801D1022700E09A
:102CE00001272088A0B92389A28861882846FFF798
:102CF00066FFE1882846FFF759FF23893A463146A7
:102D00002846FFF712FFE1882846FFF701FF13E08E
:102D10002389A28861882846FFF707FFE1882846B3
:102D2000FFF7F6FE23893A4631462846FFF747FF6C
:102D3000E1882846FFF73AFFBDE8F0810A884B8812
:102D40001A438B881A43CB881A430B891A434B8941
:102D50001A438B891A43A0F8442070474FF6FF713D
:102D6000818000210180C180418001727047002173
:102D7000018041808180C180018141818181C18147
:102D80007047002101804180012181800021C180A4
:102D9000018170470021018041808180C1800181D3
:102DA0004181818170470000002C014000340140C6
:102DB0000004004000080040000C004021B10288DF
:102DC00042F00102028004E002884FF6FE731A40CE
:102DD0000280704731B1B0F8442042F40042A0F8BC
:102DE000442005E0B0F84420C2F30E02A0F84420CD
:102DF00070471AB183890B43838102E083898B4337
:102E0000838170478182704741EA0203A0F848300D
:102E100070471AB183890B43838102E083898B4316
:102E20008381704701894FF6F87211400181704724
:102E30000A46002101894FF68F7319401143018121
:102E4000704730B504460D4629462046FFF7F0FF8F
:102E5000208940F00700208130BD2DE9F041044673
:102E60000D4616461F46602D06D13B4601223146CF
:102E70002046FFF75AFE05E03B4601223146204638
:102E8000FFF79DFE29462046FFF7D2FF208940F03C
:102E900007002081BDE8F08130B50C460021018992
:102EA000C9B24FF6FF7505EA0325154325432943AB
:102EB000018130BD2DE9F04105460E461746984682
:102EC000002443463A4631462846FFF7E5FF2C8961
:102ED0004FF6F870044044F007044FF68F7004403A
:102EE00044F070042C81BDE8F081F0B504460D4635
:102EF00016461F463B46324629462046FFF7CCFF82
:102F0000208940F480402081F0BD01858282704795
:102F10000A46002101884FF68F7319401143018042
:102F20007047F0B50C4615461E46002100220023CE
:102F30000189028B038C4FF6F877394021434FF615
:102F4000FC473A4040F201173A434FF6DD773B40E9
:102F50004FF6FF7707EA06172F433B4301810283B1
:102F60000384F0BD0A460021018B4FF68F73194090
:102F70001143018370470A460021018B48F6FF7315
:102F800019404FF6FF7303EA022319430183704788
:102F90000A460021818B4FF68F73194011438183BC
:102FA00070470A460021818B48F6FF7319404FF69F
:102FB000FF7303EA022319438183704721B102881A
:102FC00042F08002028004E002884FF67F731A40CC
:102FD0000280704721B1828842F00402828004E0BE
:102FE00082884FF6FB731A408280704721B1828835
:102FF00042F00802828004E082884FF6F7731A409C
:103000008280704721B1828842F00102828004E010
:1030100082884FF6FE731A40828070470A4600216C
:10302000018B4FF6F77319401143018370470A462D
:103030000021018B4FF2FF7319404FF6FF7303EA33
:1030400002231943018370470A460021818B4FF602
:10305000F77319401143818370470A460021818B21
:103060004FF2FF7319404FF6FF7303EA022319432F
:10307000818370470A460021018B4FF6FB7319408C
:103080001143018370470A460021018B4FF6FF333D
:1030900019404FF6FF7303EA022319430183704777
:1030A0000A460021818B4FF6FB731940114381833F
:1030B00070470A460021818B4FF6FF3319404FF6C7
:1030C000FF7303EA02231943818370470A460021F4
:1030D000018B4FF67F7319401143018370470A46F5
:1030E0000021018BC1F30E014FF6FF7303EA0223A7
:1030F0001943018370470A460021818B4FF67F7385
:1031000019401143818370470A460021818BC1F326
:103110000E014FF6FF7303EA0223194381837047C0
:103120000A460021018C4FF6FD73194011430184BA
:1031300070470A460021018C4FF6F773194011437E
:10314000018470470A460021018C4FF6DF73194055
:103150004FF6FF7303EA02131943018470470A46CE
:103160000021018C4FF67F7319404FF6FF7303EA7D
:1031700002131943018470470A460021018C4FF65F
:10318000FF5319404FF6FF7303EA022319430184EA
:1031900070470A460021018C4FF2FF7319404FF629
:1031A000FF7303EA02231943018470470A46002192
:1031B000018C4DF6FF7319404FF6FF7303EA02339B
:1031C00019430184704730B5002301248C40A3B219
:1031D000048C9C430484048C02FA01F5ADB22C43A8
:1031E000048430BD30B5002304248C40A3B2048C89
:1031F0009C430484048C02FA01F5ADB22C43048490
:1032000030BD70B503460020002418461830012553
:103210008D40ACB21D8CA5431D8409B1082909D18C
:1032200000EB6100056825F0700505600568154331
:1032300005600EE00D1FC5F34E052844056825F412
:10324000E045056005684FF6FF7606EA022635433D
:10325000056070BD21B1028842F00202028004E0E4
:1032600002884FF6FD731A400280704721B1028830
:1032700042F00402028004E002884FF6FB731A4019
:103280000280704721B1828842F08002828004E08F
:1032900082884FF67F731A408280704702884FF60B
:1032A000F7731A40028002880A43028070478288BE
:1032B0004FF68F731A40828082880A43828070475B
:1032C00002894FF6F8731A40028102890A4302818B
:1032D000704702894FF67F731A40028102890A43C0
:1032E000028170478184704781857047818670476D
:1032F0000187704781877047A0F8401070470288A7
:103300004FF6FF431A40028002880A43028070474A
:103310000146888E70470146088F70470146888FA6
:1033200070470146B1F8400070470146888C7047ED
:103330000146088D704702460020138A0B400BB1EE
:10334000012000E000207047CA430282704730B578
:103350000246002000230024158A05EA010395890E
:1033600005EA010413B10CB1012000E0002030BDDA
:10337000CA430282704770470FB4044910B503AACC
:10338000029800F025FC10BC5DF814FBD000002072
:103390000FB41CB5074B06AA7B44694600900598FC
:1033A00000F0E7FB0020694600F0F6FB1CBC5DF86E
:1033B00014FB0000FD07000070B504468569006835
:1033C000C10601D5302600E02026C00707D070BD19
:1033D000D4E9012130469047206A401C20626D1ECE
:1033E000F6D570BD70B5044685690078C00707D171
:1033F00070BDD4E9012120209047206A401C206242
:103400006D1EF6D570BD70B50C460546012A05D077
:103410002878800600D5EA69002302E0012305E050
:103420005B1C934202D2E05C0028F9D1A869E6183F
:10343000C01AA861286A184428622846FFF7BCFF12
:1034400004E0D5E9012114F8010B9047B442F8D308
:103450002846FFF7C7FF70BD2DE9F041064600245E
:1034600010687529314616A510D0AFF300800028EA
:1034700002DA404213A507E031688A0701D512A598
:1034800002E0490704D511A5012401E0AFF3008053
:1034900000210A2206F1240709E0B0FBF2FCB0FB90
:1034A000F2F302FB1C00303078541846491C002807
:1034B000F3D123462A463046BDE8F04100F0EEB88D
:1034C000000000002D0000002B0000002000000084
:1034D0002DE9F05F894604464FF0000ADFF824B179
:1034E000FB44C0F820A02046E168884700287DD032
:1034F000252806D0D4E901219047206A401C20628B
:10350000F1E700255F462046E16888472028064607
:1035100007DB312E05D2B81910F8200C08B105438D
:10352000F1E7A80701D525F00405C4F81CA0002781
:10353000C4F818A02A2E09D0304601F05EF938B33D
:1035400004EB8708303EC8F8186019E059F8041BEE
:10355000204604EB87029161E1688847012F064607
:1035600018D1E069002820DA25F020051DE0D8F800
:10357000180000EB800006EB40003038C8F8180057
:103580002046E1688847064601F037F90028EED169
:10359000012F0AD02E2E08D12046E16888477F1CD3
:1035A0000646022F45F02005C4DBA069002803DA97
:1035B000404245F00105A061E80701D025F0100563
:1035C000A6B1A6F14100192802D8203645F40065BD
:1035D0004A463146204625604D46FCF7C1FD60B1A4
:1035E000012807D0ED1D25F0070000E007E000F1FD
:1035F000080978E705F1040975E730467AE7206A9B
:10360000BDE8F09F8616000070B5064600F042F84F
:103610000468054630460A22002100F0EBFA2C60CF
:1036200070BD30B505460B462A4613F8014B12F81B
:10363000010B08B1A042F8D01CB1002802D06D1CCB
:10364000F1E7284630BD4FF000020429C0F0128097
:1036500010F0030C00F00883CCF1040CBCF1020F55
:1036600018BF00F8012BA8BF20F8022BA1EB0C011A
:1036700000F0FABA5FEAC17C24BF00F8012B00F821
:10368000012B48BF00F8012B704770477047704707
:103690007047000000487047EC0400202DE9F04717
:1036A0000D4699469246044600F1240801688806B2
:1036B00004D5E06921F01001216000E00120A8425A
:1036C00001DD471B00E00027A1697A1902EB090020
:1036D000081AA0612078C00602D42046FFF76CFECD
:1036E000002608E0D4E901211AF806009047206A74
:1036F000401C761C20624E45F4DB2078C0060AD5BB
:103700002046FFF759FE06E0D4E90121302090471A
:10371000206A401C2062381EA7F10107F4DC07E094
:10372000D4E9012118F805009047206A401C206266
:10373000281EA5F10105F3DC2046FFF753FE207893
:10374000000602D50220BDE8F0870120FBE77047A4
:103750002DE9FF4F0C461E464FF0FF378BB0D2E9E4
:103760000001DDF860800A908A46C1F30A5505B968
:103770003D46002108464FF00000BAF1000F00F46A
:10378000400005DA00EB80004FF4400101EA5000F0
:103790004FEA9059B9F1010F00DDB9460A9850EA95
:1037A0004A000ED044F61050A5F2FF3545432F14C1
:1037B000B8F1000F1ED07542291E1EDDC9F10002AE
:1037C0001CE0B8F1010F4FF0000001D0302103E000
:1037D000F24305E02154401CB042FBDB304600229E
:1037E000002121540B99C1F80880C1E900200FB0D5
:1037F000BDE8F08FBD1B6D1CDEE74A4600DA69426A
:1038000006A800F03DFB06AB93E8070003AB83E896
:10381000070050460A9900F021FC8DE80700A0F54A
:1038200000501F3800900398002D09DD42F21F015F
:103830004A46084403A90390684600F080FE08E069
:10384000A0F500504A461F3803A90390684600F0CF
:103850008AFE8DE807000004000C03D04FF0FF3013
:10386000410800E01046B8F1000F03D0002200929A
:1038700015461EE0751E05D400F02CFA3032625554
:103880006D1EF9D5B3460122084302D000227F1CE9
:1038900004E02078302801D100227F1E002A0997F9
:1038A00086D01DE0112D07DA00F014FA303262558F
:1038B0006D1C50EA0102F5D1084302D00098C8B14E
:1038C0000EE00021681E05E0235C625C6354225414
:1038D000401E491C8142F7DBAB46A81B401E0990E5
:1038E000002004F80B000B98099AC0F80880C0E982
:1038F000002B7CE711264FF0000859E72DE9F04F27
:1039000088460446D21D22F0070191B0D1E900019A
:10391000CDE90A0100F05DFF02460B98C00F01D00F
:103920002D2007E02068810701D52B2002E020210F
:1039300001EAC000032A099001D0072A05DB0346EB
:103940004146204600F00CFA0BE12078800601D5B4
:10395000E06900E00620B8F1650F814606D0B8F1B5
:10396000660F18D0B8F1670F70D131E00020B9F1BF
:10397000110F009001DB112301E009F101030AAAF4
:1039800001A90CA8FFF7E4FEDDE90C70002609F19F
:103990000105834647E001204B4600904FF0004769
:1039A0000AAA01A90CA8FFF7D3FEDDE90DB00C9916
:1039B0005D46002610B909F101000D18B9EB0500AC
:1039C00003D4C0F1FF3609F10105A5EB09002BE096
:1039D000B9F1010F01DA4FF001090020B9F1110F1F
:1039E0000090484601DD112300E003460AAA01A920
:1039F0000CA8FFF7ADFEDDE90C704D4600268346AE
:103A0000207800070AD4AB4500DA5D4601A8012DF5
:103A100004DD411911F8011C302907D04F4502DAA5
:103A200017F1040F04DA012082460FE06D1EEEE765
:103A3000002F02DCED1B3E4403E0781CA84200DDB1
:103A40007D1CB81B00F1010A4FF0004720780007E9
:103A500003D4AA4501DB4FF0FF3A0021B7F1004F34
:103A60000DF143088DF8431024D002202B23002FA2
:103A700001DA7F422D230A21021EA0F1010000DCA1
:103A80005FB197FBF1FC97FBF1F201FB1C7C174641
:103A90000CF1300C08F801CDEEE7A8F1010003703D
:103AA0002188090501D5452100E06521A0F1010823
:103AB00000F8011C09980FA9A1EB0807FF1D00B130
:103AC0000120411901EBEA70A1693844081A401E2F
:103AD000A0612078C00602D42046FFF76DFC09984B
:103AE00028B1D4E901219047206A401C2062207847
:103AF000C00622D52046FFF75FFC1EE0002E04DB47
:103B0000B34502DD01A8805D00E03020D4E9012149
:103B10009047206A401C2062761CAAF101005FEAEF
:103B2000000A0AD100F0D2F8C0680168405CD4E90C
:103B300001219047206A401C2062281EA5F1010542
:103B4000DCDC07E0D4E9012118F8010B9047206A7A
:103B5000401C2062381EA7F10107F3DC2046FFF766
:103B600041FC032011B043E601694A1C0261087858
:103B7000704700B58FB0CDE90131002105910549AD
:103B80007944CDE9031011466846FFF7A1FC0FB058
:103B900000BD0000E5FFFFFF0A6802F8010B0A60A4
:103BA000704710B5436913B1AFF3008001E0FFF730
:103BB0002AFC012010BD127800F124010A700022B5
:103BC0004A700122EDE711684FF0FF32E9E700008B
:103BD000074B70B50D467B44FFF7CBFF04462846E4
:103BE00000F0BCF910B14FF0FF3070BD204670BD41
:103BF0001DDCFFFF2DE9F04791460F468046044645
:103C0000002614F8015B2DB100F058F80068405D03
:103C1000C007F6D12B2D02D02D2D18D0641E4A4698
:103C20003946204600F0DCF827B13968A14201D1BD
:103C3000C7F800804FF0020471050BD54042002800
:103C400003DDFFF727FD0460A007BDE8F08746F419
:103C50008066E4E70028F8DAFFF71CFD04606FF0E7
:103C60000040F2E74FF0000200B513469446964636
:103C7000203922BFA0E80C50A0E80C50B1F120017F
:103C8000BFF4F7AF090728BFA0E80C5048BF0CC02D
:103C90005DF804EB890028BF40F8042B08BF70478B
:103CA00048BF20F8022B11F0804F18BF00F8012BFD
:103CB0007047000000487047EC04002010B500F089
:103CC00005F8001D10BD00BF6D0B000000487047D7
:103CD0000C05002030B5B0F10A024FEA900E71F1E8
:103CE00000034EEA817EB0EB0E0061EB91014FEADA
:103CF000101E4EEA017E10EB0E0041EB11114FEA4F
:103D0000102E4EEA016E10EB0E0041EB11214FEA2E
:103D1000104E4EEA014E10EB0E0041EB11414018DF
:103D200041F100014FEAD00040EA41704FEAD10171
:103D300010EB80054FEA810444EA907444EB0104DF
:103D40006D1944EB0404521BA3414FF0000348BF1C
:103D50000A3200D530BD401C41F1000130BD0000E9
:103D60002DE9F0411F46044603260168072A01F4A5
:103D7000006004DB08B116A505E016A503E008B154
:103D800015A500E015A521F010002060A069C01E57
:103D9000A0610FB1401EA0612046FFF70DFB4FB19F
:103DA000D4E9012138469047206A401C2062C01C9B
:103DB000206206E0206AFAE7D4E9012115F8010B38
:103DC0009047761EF8D22046FFF70CFBBDE8F08145
:103DD0004E414E006E616E00494E4600696E6600AF
:103DE0002DE9F05F824615468B4600270AF1010453
:103DF000B9460078302801D09DB113E014F8010BCA
:103E00000127782803D0582801D045B10AE00DB128
:103E1000102D07D1002714F8010B102502E008250A
:103E200000E00A250026B0460EE005FB080005FB71
:103E300006F101271FFA80F801EB1046B6F5803F26
:103E400000D3B94614F8010B294600F0B0F8002859
:103E5000EBDABBF1000F05D00FB1641E00E0544651
:103E6000CBF80040B9F1000F06D0FFF713FC022198
:103E70000160C81EBDE8F09F48EA0640FAE700006E
:103E80002DE9F047814616468AB0334878440DC87C
:103E90008DE80D0030487844801C03AC0DC884E8E0
:103EA0000D0041F69B300844372190FBF1F290FB66
:103EB000F1F5A5F1800501FB12041B3C02D564421B
:103EC000012000E00020DFF890A080460027FA449F
:103ED000AAF1BE0A0DE0E00709D03246684607EBBA
:103EE00047010AEB810100F03EFB8DE807006410FA
:103EF0007F1C002CEFD1184F7F44AC3F18E0E8073F
:103F000014D007EB04100DF1180A90E80E008AE8AF
:103F10000E00C068F04201D198190890324606A9F7
:103F200003A800F020FB03AB83E807006D10641CBE
:103F3000002DE4D132466946B8F1000F03A802D043
:103F400000F0FDFA01E000F00EFBC9E90001C9F83C
:103F500008200AB0BDE8F087680D0000007B00F083
:103F6000800070477546FFF7A5FEAE46050069461E
:103F7000534620F00700854618B020B5FDF7EAFC4F
:103F8000BDE820404FF000064FF000074FF000085A
:103F90004FF0000B21F00701AC46ACE8C009ACE8DB
:103FA000C009ACE8C009ACE8C0098D4670473A28A2
:103FB00000D2303820F02002412A01D3A2F137008C
:103FC000884201D34FF0FF30704710B50446AFF37D
:103FD00000802046BDE81040FCF7E8B84FF0013CF7
:103FE00050F8042B51F8043B9A4221D1A2EB0C0368
:103FF000934313EACC1317D150F8042B51F8043B28
:104000009A4215D1A2EB0C03934313EACC130BD1C4
:1040100050F8042B51F8043B9A4209D1A2EB0C034F
:10402000934313EACC13DBD04FF00000704700BF7E
:10403000D01A01BAB1FA81F101F0180122FA01F0A7
:10404000CB40C1F12001DBB2C0B2C01A2CFA01F39F
:10405000D11A914311EAC311E6D170475FEA400CCF
:1040600008BF91F0000F4FEA8C234FEAC12243EAC8
:1040700051514FEA1C5018BF00F5F0404FEA300094
:1040800018BF41F000415FEA6C5C00F02980BCF190
:10409000FF3F08BF40F080407047130C06BF12047A
:1040A0004FF0100C4FF0000C130E04BF12020CF175
:1040B000080C130F04BF12010CF1040C930F04BF82
:1040C00092000CF1020CD30F04BF52000CF1010C52
:1040D00011464FF00002A0F11F00A0EB0C0070474A
:1040E00011F0004F08BF704731F000413FF4D5AFE9
:1040F0000B0C06BF09044FF0100C4FF0000C0B0E18
:1041000004BF09020CF1080C0B0F04BF09010CF1EC
:10411000040C8B0F04BF89000CF1020CCB0F04BF01
:1041200049000CF1010CCCF12003A0EB0C0022FAA9
:1041300003F302FA0CF241EA030100F101007047B7
:1041400020F07F4C80EA030023F07F47ACEB0703AD
:1041500003F57C5300F0004003F1FF032DE9804993
:104160004FEA154B09B44FEA144325EA0B4E24EAF3
:1041700003480FF2042606EB132749083E785FEA4E
:10418000320203FB0667C7F5000707FB06F64FEA96
:1041900054374FEAD64606F1020607FB066CCCF10F
:1041A000005C4FEA1C472CEA074C07FB06F40CFBAB
:1041B00006F504EB15464FEA961634BF00204FF083
:1041C00000404FEAD13706FB07FC4FEA1C4C0CFBC2
:1041D0000BF7D21B03FB0CF761EB07010CFB0EF78F
:1041E000B0EB074072EB17420CFB08F734BFA2EBB1
:1041F0000742B2EB074261EB17414FEA0C444FEA2A
:10420000910706FB07FC4FEA1C4C0CFB0BF7B0EBCD
:10421000C74072EB573203FB0CF734BFA2EBC74227
:10422000B2EBC74261EB57310CFB0EF7B0EBC700A6
:1042300072EB57720CFB08F734BFA2EBC702B2EB6C
:10424000C70261EB5771039F4FEA816141EA921106
:1042500004EBCC044FEAD1374FEA826206FB07FC3D
:1042600042EA90124FEA80604FEA1C4C0CFB0BF7BD
:10427000D21B03FB0CF761EB07010CFB0EF7B0EB55
:10428000074072EB17420CFB08F734BFA2EB074262
:10429000B2EB074261EB17414FEA8C554FEA9107A9
:1042A00004EB9C2406FB07FC4FEA1C4C0CFB0BF7B1
:1042B000B0EBC74072EB573203FB0CF734BFA2EBF5
:1042C000C742B2EBC74261EB57310CFB0EF7B0EBC4
:1042D000C70072EB57720CFB08F734BFA2EBC702A2
:1042E000B2EBC70261EB577115EB4C254FEA8161C8
:1042F00041EA92114FEA82624FEAD13742EA9012C4
:1043000006FB07FC44F100044FEA80604FEA1C4CB6
:104310000CFB0BF7D21B03FB0CF761EB07010CFB4B
:104320000EF7B0EB074072EB17420CFB08F734BFF7
:10433000A2EB0742B2EB074261EB174115EB1C15EC
:104340004FEA813141EA92414FEA823242EA904299
:104350004FEA80304FEA0C7644F1000448EA034308
:104360004EEA0B484FF0000EB2EB080C71EB03075E
:1043700024BF624639464EEB0E0E4FF0000B00187C
:10438000524149414BEB0B0BB2EB080C71EB0307AD
:104390007BF1000B24BF624639464EEB0E0E4FF008
:1043A000000B0018524149414BEB0B0BB2EB080CD0
:1043B00071EB03077BF1000B24BF624639464EEBDD
:1043C0000E0E51EA020718BF46F0010616EB0E76F4
:1043D00055F1000254F1000103D5BDE88901BDE8A3
:1043E0000088BDE88901BDE80048B619524141EB9B
:1043F0000101A3F10103704780807F7E7D7C7B7A81
:104400007978777676757473727171706F6E6E6D80
:104410006C6C6B6A6A696868676666656464636326
:1044200062616160605F5F5E5E5D5D5C5C5B5B5AAC
:104430005A59595858575756565555555454535319
:1044400052525251515050504F4F4F4E4E4D4D4D74
:104450004C4C4C4B4B4B4A4A4A49494948484847BF
:1044600047474746464645454544444444434343FD
:104470004342424242414141002B26D4770021D0A1
:104480001CB54FEA370703B44FF010004FF010018E
:104490004FF000000FBCBDE810400BF1010BBBF169
:1044A000010F08BF5FEA170722BF12F1010211F1E5
:1044B00001014FF0004143F1000300F0004043EAE6
:1044C00000007047F9D35708DAE746EA064613F1C9
:1044D000400F4FEA16461FDD13F1200FDFBF1643D2
:1044E0000A46002120335B42C8D0C3F1200746EAC8
:1044F000064602FA07F74FEA164646EA0706C3F1F0
:10450000200722FA03F201FA07F721FA03F14FF02C
:10451000000342EA0702B1E746EA020646EA064617
:104520004FEA164646EA0106BCBF46EA0646360C86
:104530004FF000034FF000024FF000019EE72DE91D
:10454000C048934630B491E8380007C831EA400CBF
:1045500048BF34EA430C03D5FFF7F2FDFFF78CFFA9
:10456000F0BCBDE800882DE9C048934630B491E81E
:10457000380007C810F0804F08BF13F0804F03D1F8
:1045800000F005F8FFF778FFF0BCBDE8008820F0E8
:104590007F4780EA030023F07F4C07EB0C03A3F571
:1045A0007C5300F00040A3F1FE0392F0000F00F0F6
:1045B000B38095F0000F00F077802DE901494FEAB4
:1045C00011404FEA144621EA004800FB06FC24EAA9
:1045D000064708FB06F607FB08F800FB07F718EB91
:1045E00006484CEB164C4FEA124B18EB07484FEAC3
:1045F00015464CEB174022EA0B4E0BFB06FC25EA56
:1046000006470EFB06F607FB0EFE0BFB07F71EEB3D
:10461000064E4CEB164C4FF000061EEB074E4CEBD3
:10462000174B18EB0B0840F1000018EB0E0B58EB82
:10463000000840F100008F1A4FF000013CBFC94351
:10464000661B14BFB5EB040C00213CBFC943F61B2D
:104650004FEA17444EEA8E0E27EA04454FEA1C47FC
:1046600004FB07622CEA074C05FB07F70CFB05F679
:1046700004FB0CFC16EB074642EB174216EB0C460C
:1046800042EB1C421BEB060658EB0202414146EA94
:104690009E0601D5BDE80189B619524141EB0101E1
:1046A000A3F10103BDE801894FEA14454FEA114720
:1046B00024EA054621EA074C05FB07F406FB07F749
:1046C0000CFB06F105FB0CFC11EB074144EB174416
:1046D0004FEA124711EB0C4144EB1C4422EA074C11
:1046E00005FB07F206FB07F70CFB06F605FB0CFCC7
:1046F00016EB074642EB174216EB0C4642EB1C4505
:104700006A1854F1000148BF7047B619524141EB95
:104710000101A3F10103704795F0000F37D04FEA74
:1047200011424FEA144721EA024624EA074C02FBF1
:1047300007F106FB07F70CFB06F402FB0CFC14EB7D
:10474000074441EB17414FEA154714EB0C4441EB8A
:104750001C4125EA074C02FB07F506FB07F70CFB9B
:1047600006F602FB0CFC16EB074645EB174516EB6D
:104770000C4645EB1C42121951F1000148BF70472D
:10478000B619524141EB0101A3F1010370474FEA11
:1047900014454FEA114724EA054621EA074C05FB78
:1047A00007F106FB07F70CFB06F24FF0000605FBCE
:1047B0000CFC12EB074241EB174112EB0C4251EBA0
:1047C0001C4148BF7047921841EB0101A3F101035E
:1047D0007047490050EAC12018BF04204A0D18BF95
:1047E00040F0010040F2FF72B2EB515F08BF40F0B1
:1047F0000200012808BF0520704730380A2801D27E
:10480000012070470020704710B500290AD00878B1
:10481000002807D005487844FFF7E0FB002801D0C6
:10482000002010BD0248784410BD0000760400004E
:104830006E04000010B500290AD00878002807D0BF
:1048400005487844FFF7CAFB002801D0002010BDBE
:104850000248784410BD0000660400005E040000B9
:104860000808A0F500114FEA3101704743004FEAF4
:10487000D30C4FEA3C0C43401FBF40070CF1605182
:1048800013F0FE4F70471CF0006F03D100200CF0B6
:10489000004170470CF0004343EA507010B540EA05
:1048A000CC0000F0E4F800BF000000924FEA0001E5
:1048B000FFF7D6BF4FF000414FF00000A1F50021F7
:1048C000704700004FF47F0C1CEAD0121EBF1CEA98
:1048D000D11392EA0C0F93EA0C0F00F0858090EA56
:1048E000010F48BF42F4807240F4000C41F4000014
:1048F0002CF07F4120F07F4000B58142A2EB030203
:104900000FF2081CACEB504EC0F100009EF800E026
:104910004FEA4E0E00FB0EFC38BF49004FEA2C1C3C
:1049200002F5FA020CFB0EF34FEACE1E4FEA112CF1
:104930004FEAC1210EEB635E42EB22420EFB0CFC00
:104940004FEA1C5300FB03114FEA112C4FEA0131CF
:104950000EFB0CFC4FEADC4C00FB0C11C14228BFE3
:1049600009184CEB03335DF804EB10EB410143EB0A
:10497000C250B2F57C0F38BF704729D512F0F00F46
:104980001CBF00F1C04000F00040704700818283EE
:104990008485868788898B8C8D8E8F91929395964E
:1049A00097999A9C9D9FA0A2A3A5A7A8AAACAEB0D8
:1049B000B2B3B5B7B9BCBEC0C2C5C7C9CCCED1D4DD
:1049C000D7D9DCDFE2E6E9ECF0F3F7FAFE0000000D
:1049D0004FEA400C0CF1807CBCF17E4F28BF704741
:1049E000B0F1C04000F089B890EA010F0CEAD11391
:1049F00048BF42F48072624538BF634507D213F462
:104A00007F0F16D080EA010000F00040704710B51B
:104A100000F02DF8097EFC3E00F005B880EA0100A8
:104A200000F00040704780EA010000F0004000F014
:104A300064B812F47F0F04BF0248704780EA010097
:104A400000F05BB80000C07FB0FA80F310FA03F208
:104A5000C3F19D030AD0D90501EB1220530638BFDC
:104A6000704700F1010008BF20F0010070470EF10F
:104A7000020E2EF0030E5EF8044B244204D44FEADB
:104A80004102B2F17F4F11D84FEA4003B3F17F4F9B
:104A90000CD80ED14FEAD07CB2F17F4F0CEB4C0C0E
:104AA0000CF1020C08BF4CEBD17C04E04FF0080C79
:104AB00001E04FEAD17C0CEB4C0324FA03F404F040
:104AC0000704B4F1040C06D20EEB840CBDE81040D0
:104AD0004CF0010C6047DFE80CF0070802024FF0D1
:104AE0000040A0F5800010BD0846420018BFD2F17A
:104AF000807288BF00F0004010BDFF2141EAD05015
:104B0000C0057047FEF7FABE000102030405060760
:104B100008090A0B0C0D0E0F102021222324252634
:104B20002728292A2B2C2D34353640414243444531
:104B3000EA7F808182838485860202020202020269
:104B40000101020202020202020202020303030244
:104B5000040404030303030301010101010101042F
:104B60000201030202020202020204000008000025
:104B700000000000000200010000100002400000E0
:104B8000000000A00000000005400000000000C878
:104B9000000000000C4000000000409C00000000ED
:104BA000194000000020BCBE00000000344000009E
:104BB000BFC91B8E00000004B5400000504BCFD091
:104BC0006607E2CF010000006C4100003E8251AA5E
:104BD000DFEEA73401000000D9420000DCB5A0E2FE
:104BE0003A301F97FFFFFFFFB4450000FD25A0C826
:104BF000E9A3C14FFFFFFFFFFF3F0000000000805F
:104C000000000000FF3F00000000008000000000E6
:104C10007B224E616D65223A225265706F7274522A
:104C200065616C74696D654C6F6164222C224375FB
:104C30007272656E74223A222573222C22566F6C92
:104C400074616765223A222573222C22576174749D
:104C5000223A222573222C2254696D657374616D8A
:104C600070223A222573227D00000000B84D000812
:104C700000000020EC00000028010008A44E0008FD
:104C8000EC000020640A0000440100081C00000041
:104C900043000000F8FFFFFF0C0000000E000000C2
:104CA0000F0000002E000000100100004300000073
:104CB000F8FFFFFF0040404040404040404041413D
:104CC00041414140404040404040404040404040E1
:104CD000404040404005020202020202020202027B
:104CE0000202020202202020202020202020200278
:104CF0000202020202029090909090901010101008
:104D000010101010101010101010101010101010A3
:104D10000202020202028888888888880808080837
:104D20000808080808080808080808080808080803
:104D3000020202024000000000000000000000002B
:104D40000000000000000000000000000000000063
:104D50000000000000000000000000000000000053
:104D60000000000000000000000000000000000043
:104D70000000000000000000000000000000000033
:104D80000000000000000000000000000000000023
:104D90000000000000000000000000000000000013
:104DA0000000000000000000000000000000000003
:104DB00000000000000000000000000000000000F3
:104DC00000A24A04000000000000000001020304E9
:104DD00006070809000000000000000000000000B5
:104DE00000000000000000000000000000000000C3
:104DF00000000000000000000000000000000000B3
:104E000000000000000000000000000000000000A2
:104E10000000000000000000000000000000000092
:104E20000000000000000000000000000000000082
:104E30000000000000000000251466F266F2F4F4A1
:104E40000000000000000000000000000000010061
:104E50009104DA0D00003F0900000000000000008E
:104E60000000000000000000000000000000000042
:104E70000000000000000000000000000000000032
:104E80000000000000000000000000000000000022
:104E900000000102030401020304060708090204DA
:044EA0000608000000
:04000005080000ED02
:00000001FF
